:020000040800F2
:1000000000200020E91B0008E9050008EB050008B6
:1000100000000000000000000000000000000000E0
:10002000000000000000000000000000ED050008D6
:100030000000000000000000EF050008F1050008C6
:10004000391C0008391C0008391C0008391C00083C
:10005000391C0008391C0008391C0008391C00082C
:10006000391C0008391C0008391C0008391C00081C
:10007000391C0008391C000800000000391C000869
:1000800000000000391C0008000000000000000013
:10009000391C000800000000391C0008391C000849
:1000A000391C0008391C0008391C0008391C0008DC
:1000B000391C0008391C0008391C0008391C0008CC
:1000C000002243088B4274D303098B425FD3030A97
:1000D0008B4244D3030B8B4228D3030C8B420DD3AA
:1000E000FF22090212BA030C8B4202D31212090238
:1000F00065D0030B8B4219D300E0090AC30B8B4276
:1001000001D3CB03C01A5241830B8B4201D38B0323
:10011000C01A5241430B8B4201D34B03C01A5241C8
:10012000030B8B4201D30B03C01A5241C30A8B420B
:1001300001D3CB02C01A5241830A8B4201D38B02F6
:10014000C01A5241430A8B4201D34B02C01A52419A
:10015000030A8B4201D30B02C01A5241CDD2C3090C
:100160008B4201D3CB01C01A524183098B4201D388
:100170008B01C01A524143098B4201D34B01C01A73
:10018000524103098B4201D30B01C01A5241C308EB
:100190008B4201D3CB00C01A524183088B4201D35A
:1001A0008B00C01A524143088B4201D34B00C01A46
:1001B0005241411A00D20146524110467047FFE7B2
:1001C00001B5002000F006F802BDC0460029F7D0B6
:1001D00076E770477047C046002B11D1002A0FD137
:1001E000002900D1002802D00021C943080007B42B
:1001F000024802A14018029003BDC046D9FFFFFF8C
:1002000003B4684601B5029801F044FD019B9E4687
:1002100002B00CBC7047C04610B5002903D100F0F5
:1002200007F8203002E0080000F002F810BDC046D8
:100230001C2101231B04984201D3000C10391B0A16
:10024000984201D3000A08391B09984201D30009DA
:10025000043902A2105C40187047C0460403020231
:100260000101010100000000000000000448054BEE
:1002700010B5834203D0044B002B00D0984710BD2B
:100280000C0000200C000020000000000648074978
:10029000091A8B10C90FC91810B5491003D0044BA7
:1002A000002B00D0984710BD0C0000200C0000204F
:1002B0000000000010B5074C2378002B09D1FFF790
:1002C000D5FF054B002B02D0044800E000BF0123FE
:1002D000237010BD0C000020000000002C1E000840
:1002E000054B10B5002B03D00449054800E000BFC2
:1002F000FFF7CCFF10BDC04600000000100000203A
:100300002C1E0008F0B589B003AC14220021200097
:1003100001F093FC1B4BD96A04221143D962D96ABC
:100320000A400092009AD96A80221143D962D96AA0
:100330000A400192019ADA6A01263243DA62DB6AE4
:1003400033400293029BA027FF05002220213800A2
:1003500001F094F880239B01039384239B0304936F
:10036000002505952100084800F0C2FF20230393D3
:100370000496059506952100380000F0B9FF09B0F4
:10038000F0BDC046001002400008005072B6FEE703
:1003900010B59CB00EAC38220021200001F04DFCBD
:1003A0001422002109A801F048FC242200216846FB
:1003B00001F043FC1A490A681A4B1A4080231B01BA
:1003C00013430B6010230E930F3B159300231693DA
:1003D000A022120217921893200000F093FA00282E
:1003E00017D109A80F230993002343608360C360DA
:1003F0000361002100F04AFD00280CD16846022369
:1004000000930023049300F053FE002805D11CB094
:1004100010BDFFF7BBFFFFF7B9FFFFF7B7FFC046FF
:1004200000700040FFE7FFFF00B583B00822002105
:10043000684601F002FC0B480B4B036000F042F9E8
:1004400000280BD169460023009301930548002240
:1004500000F04CF9002803D103B000BDFFF796FF70
:10046000FFF794FFB40000200074004010B50B4863
:100470000B4B0360E1235B02436000238360C36096
:1004800003610C2242618361C3610362436201F034
:1004900073FB002800D110BDFFF778FF2C0000206F
:1004A00000440040F0B5A1B000F09CF9FFF770FFE8
:1004B000FFF728FFFFF7DAFFFFF7B6FF16A9414A5B
:1004C00013000E0031CB31C61A00330031CA31C3DC
:1004D00031CA31C31088188092789A7001256D4214
:1004E000394C2B002622200001F065FA374E0021FE
:1004F000300000F01DF980231B0100220021300094
:1005000000F039F90AA9324A0B00C1CAC1C3C1CAF5
:10051000C1C3C1CAC1C341CA41C312781A702B00FA
:100520002C22200001F047FA1BE0963327489B005D
:100530000022002100F01FF904A9264B0A00180030
:1005400038C838C218C818C201231F485B4213229A
:1005500001F031FA204B01221A70FA20C00000F09D
:1005600067F9A0202021C00500F08EFF69461B4BD3
:100570006A46180038C838C203781370012312483D
:100580005B420C2201F017FA134B1B78002BCCD0E6
:100590000E48134B0022002100F0EDF804A9114B86
:1005A0000A00180038C838C218C818C20378137077
:1005B000012305485B42142201F0FDF9064B00229D
:1005C0001A70CAE7441E00082C000020B400002066
:1005D0006C1E00089C1E000828000020B01E0008A9
:1005E000AC0D0000C01E0008FEE7FEE77047704734
:1005F00010B500F00BF910BD054B5A6B01210A43F1
:100600005A63996B802252050A439A637047C04629
:100610000010024010B586B004001422002101A889
:1006200001F00BFB22680E4B9A4201D006B010BDC0
:100630000C4B996B802292050A439A63D96A012276
:100640001143D962DB6A1A400092009B01A9102372
:1006500001930D3B4B60A020C00500F049FEE5E78B
:10066000007400400010024010B586B0040014224F
:10067000002101A801F0E1FA2268104B9A4201D052
:1006800006B010BD0E4B996B802292020A439A630A
:10069000D96A01221143D962DB6A1A400092009B99
:1006A00001A90C2301930A3B4B600133CB6001335A
:1006B0000B61A020C00500F01BFEE1E700440040F4
:1006C0000010024010B5041E0ED00379002B07D095
:1006D000022323710023E36001332371002010BD46
:1006E0004371FFF797FFF3E70120F8E770B543790F
:1006F000012B19D001254571022303710668346866
:100700000A4B93409C430B6849680B439340234337
:10071000336004682368C02191408B4323600571D6
:1007200000234371002070BD0220FCE7FE0F000093
:1007300010B54379012B1CD00123437102220271B1
:10074000046822688B4013432360026811681468B0
:1007500038232340490701D5382B05D001230371E5
:1007600000234371002010BD536801210B435360E7
:10077000F4E70220F7E782B00021019101680191BE
:100780000199891808310191019A1360002002B083
:100790007047000010B504000F4B1978FA20800054
:1007A000FFF78EFC01000D4B1868FFF789FC00F085
:1007B000C3FE00280DD1032C01D901200AE001302D
:1007C00000222100404200F0B3FE054B1C600020D7
:1007D00000E0012010BDC0460000002008000020FD
:1007E0000400002010B5084A136840210B43136031
:1007F0000020FFF7CFFF041E02D00124200010BD0F
:10080000FFF7FAFEFAE7C04600200240034A1168EB
:10081000034B1B785B1813607047C046C400002070
:1008200000000020014B18687047C046C40000203B
:1008300070B50400FFF7F6FF0500631C02D0044BFF
:100840001B78E418FFF7EEFF401BA042FAD370BDFF
:100850000000002010B5264BD9680C230B40082B54
:1008600042D00C2B07D0042B34D1214B1B68DB0664
:100870003CD5204837E08A0C0F2313401E4AD25C37
:10088000890D032319400131194BDB68DB0309D5BE
:1008900053019B1A9801C01AC00080184002FFF74C
:1008A0000FFC20E0124B1B68DB0609D553019B1A95
:1008B0009801C01AC00080180002FFF701FC12E086
:1008C00053019B1A9801C01AC00080188002FFF7DC
:1008D000F7FB08E0064B5A68520B0723134001331D
:1008E00080200002984010BD0448FCE70448FAE765
:1008F0000010024000093D00201F000800127A008D
:100900000024F400F0B583B0041E00D197E2C14B7F
:10091000DA680C251540DE6880235B021E40036800
:10092000DB0736D5082D2CD00C2D28D0636880220B
:10093000520293424DD0A022D202934250D0B54BE6
:100940001A68B5490A401A601A68802149020A40AB
:100950000192019A1A68B1490A401A606368002B33
:100960004AD0FFF75FFF0700AA4B1B689B0310D418
:10097000FFF758FFC01B6428F6D9032060E2002E61
:10098000D4D0A44B1B689B0303D56368002B00D114
:1009900058E223689B0765D5E368042D3CD00C2DF5
:1009A00038D0002B00D1B0E09A490A680920824370
:1009B00013430B60FFF736FF0600964B1B685B077F
:1009C00000D599E0FFF72EFF801B0228F5D9032000
:1009D00036E2904A116880235B020B431360BDE747
:1009E0008C4B19688022D2020A431A60196880224F
:1009F00052020A431A60B1E7FFF714FF0700854B64
:100A00001B689B03C5D5FFF70DFFC01B6428F6D9F3
:100A1000032015E2002EC4D17E4A1268520702D587
:100A2000002B00D110E27B4E72687D490A4021699B
:100A300009020A437260326809218A431343336012
:100A4000FFF708FFF26812090F231340754AD35CC1
:100A5000D840754B1860754B1868FFF79BFE00284F
:100A600000D0EDE12368DB062DD5002D60D1694B68
:100A70001B689B0503D5E369002B00D1E6E1654ABD
:100A800053686B490B40616A0B43536053681B0208
:100A90001B0A216A09060B435360616A490B013145
:100AA00080231B028B40D16809090F220A405D494F
:100AB0008A5CD3405C4A13605C4B1868FFF76AFE9F
:100AC000002800D0BCE123681B077DD56369002B9B
:100AD00067D0504A136D01210B431365FFF7A2FE47
:100AE00006004C4B1B6D9B076ED4FFF79BFE801BD3
:100AF0000228F6D90320A3E146494B68484A13402F
:100B00002269120213434B60ACE7424A1368012189
:100B10008B431360FFF786FE06003E4B1B685B07A6
:100B2000A0D5FFF77FFE801B0228F6D9032087E1BE
:100B3000E369002B22D0374A116880235B000B4306
:100B40001360FFF76FFE0600324B1B689B0506D44F
:100B5000FFF768FE801B0228F6D9032070E12D4ABA
:100B6000536833490B40616A0B43536053681B025F
:100B70001B0A216A09060B435360A4E7254A136840
:100B80002C490B401360FFF74DFE0600214B1B68FC
:100B90009B0598D5FFF746FE801B0228F6D9032057
:100BA0004EE11C4A136D01218B431365FFF73AFE9A
:100BB0000600184B1B6D9B0706D5FFF733FE801B05
:100BC0000228F6D903203BE123685B0700D48EE0BE
:100BD000104B9B6BDB001BD40E4A916B80235B0593
:100BE0000B4393630126144B1B68DB0528D5A368D0
:100BF00080225200934237D0002B4DD1054B1A6D05
:100C00000C490A401A651A6D0C490A401A6531E010
:100C10000026E8E700100240FFFFFEFFFFFFFBFF9A
:100C2000FFE0FFFF341F0008080000200400002040
:100C3000FF1FFFFFFFFEFFFF00700040FFFBFFFFF5
:100C4000884A116880235B000B431360FFF7EAFDBD
:100C50000700844B1B68DB05C9D4FFF7E3FDC01B0D
:100C60006428F6D90320EBE07F4A116D80235B00F6
:100C70000B431365A368002B28D0FFF7D3FD0700B3
:100C8000794B1B6D9B0530D4FFF7CCFDC01B774B18
:100C90009842F5D90320D3E0A022D200934209D094
:100CA000714B1A6D72490A401A651A6D71490A40F2
:100CB0001A65DFE76C4B196D013AFF3A0A431A6572
:100CC000196D802252000A431A65D3E7FFF7AAFD87
:100CD0000700654B1B6D9B0507D5FFF7A3FDC01BE8
:100CE000624B9842F5D90320AAE0012E21D0236857
:100CF0009B063CD5A369002B21D05B4B9A68012150
:100D00000A439A605A6B0A435A635B4A116A80230A
:100D10009B010B431362FFF785FD0600524B9B6856
:100D20009B0724D4FFF77EFD801B0228F6D9032001
:100D300086E04D4A936B51490B409363D7E74A4A8B
:100D4000936801218B4393604B4A136A4C490B40D3
:100D50001362FFF767FD0600434B9B689B0706D5B0
:100D6000FFF760FD801B0228F6D9032068E0A36A24
:100D7000002B00D16CE00C2D49D0022B12D03A4A46
:100D8000136840490B401360FFF74CFD0400364BDD
:100D90001B689B0139D5FFF745FD001B0228F6D9DA
:100DA00003204DE0304A136836490B401360FFF7CB
:100DB00039FD05002C4B1B689B0106D5FFF732FD62
:100DC000401B0228F6D903203AE02749CB682E4A77
:100DD0001340E26A206B0243606B02431343CB6013
:100DE0000A6880235B0413430B60FFF71BFD0400BC
:100DF0001D4B1B689B0106D4FFF714FD001B022846
:100E0000F6D903201CE000201AE0002018E0012B96
:100E100020D0154BDA6880235B021340E16A8B42D5
:100E20001AD1F0239B031340216B8B4216D1C023B0
:100E30001B041A40636B9A4212D1002000E001208B
:100E400003B0F0BD0120FBE70120F9E70120F7E73F
:100E50000020F5E70120F3E70120F1E70120EFE7AB
:100E60000120EDE7007000400010024088130000F0
:100E7000FFFEFFFFFFFBFFFF00000140FFFFFFEF52
:100E8000FFDFFFFFFFFFFFFEFFFF02FF70B5050062
:100E90000C00002800D1D1E06A4B1A6801231340EE
:100EA0008B4219D32B689B0706D5674AD368F0217C
:100EB0008B43A9680B43D3602B68DB077BD56B683A
:100EC000022B20D0032B40D0012B44D05E4A126865
:100ED00092051DD4012099E05A4A136801218B43E1
:100EE00023431360FFF79EFC0600564B1A6801234C
:100EF0001340A342D6D0FFF795FC801B534A904283
:100F0000F3D9032082E0504A1268920300D497E09C
:100F10004D49CA68032082431343CB60FFF782FC2C
:100F200006006B68022B1CD0032B28D0012B34D079
:100F3000454BDB680C221A423DD0FFF773FC801B47
:100F4000424B9842F4D9032060E03F4A1268920174
:100F5000DED401205AE03C4A12685207D8D401205E
:100F600054E0394BDA680C231340082B23D0FFF7E9
:100F700059FC801B354A9042F3D9032046E0324B9E
:100F8000DA680C2313400C2B15D0FFF74BFC801BA9
:100F90002E4B9842F3D9032038E02B4BDA680C2310
:100FA0001340042B07D0FFF73DFC801B274B9842D2
:100FB000F3D903202AE0234B1A6801231340A342EC
:100FC00025D82B685B0706D51F4AD36820490B40FC
:100FD000E9680B43D3602B681B0707D51A49CB6818
:100FE0001C4A13402A69D2001343CB60FFF732FC3E
:100FF000154BDA6812090F231340174AD35CD84007
:10100000164B1860164B1868FFF7C4FB70BD0D4AED
:10101000136801218B4323431360FFF703FC060091
:10102000084B1A6801231340A342CAD0FFF7FAFB0A
:10103000801B064B9842F3D90320E7E70120E5E740
:101040000120E3E700200240001002408813000066
:10105000FFF8FFFFFFC7FFFF341F00080800002054
:1010600004000020014B18687047C04608000020AB
:1010700010B5FFF7F7FF044BDA68120A0723134095
:10108000024AD35CD84010BD001002402C1F00085B
:1010900010B5FFF7E7FF044BDA68D20A07231340C5
:1010A000024AD35CD84010BD001002402C1F00083B
:1010B00070B50400026882231B011A4272D0814B72
:1010C0009B6BDB0000D5ABE07E4A916B80235B0518
:1010D0000B43936301257C4B1B68DB0500D4A1E027
:1010E000784B1A68C0239B031A4061680B409342F7
:1010F00000D1ACE0C0239B020A001A409A4200D102
:10110000ADE0704B1A6DC0239B02100018401A42CC
:101110001FD01940814202D023689B0608D4A368DF
:10112000C02292021340834213D023681B0510D5BE
:10113000644B1A6D654911401E6D802000033043D9
:101140001865186D624E304018651965D20500D5D6
:101150008CE023681B050FD5A368C02292021900FA
:101160001140914200D191E056490B6DA268C02018
:101170008002024013430B6523689B060FD563680A
:10118000C022920219001140914200D188E04D49DD
:101190000B6D6268C0208002024013430B65012D75
:1011A00000D187E02368DB0706D5464AD36C0321CC
:1011B0008B43E1680B43D36423689B0706D5414A00
:1011C000D36C0C218B4321690B43D36423685B07E9
:1011D00006D53C4AD36C3F490B4061690B43D3644D
:1011E00023681B0706D5374AD36C3B490B40A169DE
:1011F0000B43D36423685B0606D5324AD36C374968
:101200000B40216A0B43D36423681B0658D52D4A33
:10121000D36C33490B40E1690B43D364002070BDAC
:10122000002558E7284A116880235B000B431360B0
:10123000FFF7F8FA0600244B1B68DB0500D54FE7E3
:10124000FFF7F0FA801B6428F5D90320E7E7A368CD
:10125000C02080030340934200D04BE751E7194B75
:101260001B689B0300D44CE70120D8E7FFF7DAFAAC
:101270000600144B1B6D9B0500D56AE7FFF7D2FAF9
:10128000801B184B9842F4D90320C8E70D490A681F
:1012900015480240C0208003034013430B6063E7FE
:1012A00008490A6810480240C020800303401343E5
:1012B0000B606CE7034A936B0C490B40936371E737
:1012C0000020ACE70010024000700040FFFFFCFF70
:1012D000FFFFF7FFFFF3FFFFFFCFFFFFFFFFFFFB66
:1012E000FFFFF3FF88130000FFFFCFFFFFFFFFEFBB
:1012F000F0B5002356E086685F000324BC40A64397
:10130000CC68BC4034438460446894434E683609DA
:10131000012232409A402243426053E0DE08083600
:10132000B600375805321A4092000F249440A74364
:101330000C69944022003A43325056E0052600E002
:101340000026A64034003C4302329200444E9451A1
:10135000444A9768EA433E00AE434C68E40201D534
:101360003E002E433F4CA660E7683E0016404C68A6
:10137000A40201D53E002E433A4CE66067683E0069
:1013800016404C68A40301D53E002E43354C6660E0
:10139000266832404C68E40301D52A003243314CC0
:1013A000226001330C682200DA4057D001229A40B3
:1013B000250015401442F4D04E6803243440013C0B
:1013C000012C98D94C6803222240032A08D0C46813
:1013D0005E000322B24094438A68B2402243C26056
:1013E0004C6803222240022A98D004685E0003223F
:1013F0001700B740BC434F683A40B24022430260F6
:101400004C68C02292021442CBD0174C626B01266A
:10141000324362639A08941CA400114EA759032416
:101420001C40A4000F26A640B743A026F605B042F4
:1014300086D00E4EB0420BD00D4EB0420AD00D4EAB
:10144000B04209D00C4EB04200D177E7062678E7CB
:10145000012676E7022674E7032672E7F0BDC04650
:101460000000014000040140001002400004005050
:1014700000080050000C0050001C0050002A01D051
:10148000816170478162FCE7426913000B401B04D5
:1014900091430B438361704770B5002811DB8308CB
:1014A000134DC0339B005C5903221040C000FC3236
:1014B00016008640B44389010A40824022435A51B3
:1014C00070BD0F230340083B9B0806339B00094A6D
:1014D000944663445C6803221040C000FC3215004F
:1014E0008540AC4389010A40824022435A60E7E7C5
:1014F00000E100E000ED00E0013880235B04984249
:101500000FD2094A50600948036A1B021B0AC02116
:1015100009060B4303620023936007331360002026
:1015200070470120FCE7C04610E000E000ED00E05D
:1015300010B5FFF7B1FF10BD10B5FFF7DDFF10BD0F
:1015400010B5EFF3108C012282F3108801680B684C
:10155000124C23400B608CF31088EFF3108C82F355
:10156000108801688B6893438B608CF31088036E3E
:10157000012B06D080232022C250002303668366FD
:1015800010BDEFF3108183F31088026813683234C2
:10159000FF34A343136081F31088EBE7DFFEFFFF06
:1015A000D0B5040083680269134342691343C269DA
:1015B000134301680A689248024013430B60226893
:1015C000536890490B40E1680B435360A16922685E
:1015D0008D4B9A4201D0236A194393688B4803408C
:1015E0000B43936022688A4B9A4216D0894B9A42E9
:1015F00024D0854B9A4232D0102383498A425CD052
:10160000E06980221202904200D18FE0082B00D9BD
:10161000EDE09B00804AD3589F46804BD96C032352
:101620000B40022B33D005D8002B32D0012B32D106
:101630000333E2E7032B30D10533DEE7774BD96C78
:101640000C230B40082B2AD005D8002B29D0042BC3
:10165000D3D01023D1E70C2B25D1043BCDE76F4B22
:10166000DB6CC02109010B40802109018B421CD099
:1016700007D8002B1BD08021C9008B4219D104232D
:10168000BBE7C02109018B4215D10823B5E702232E
:10169000B3E70123B1E71023AFE71023ADE702233F
:1016A000ABE70023A9E71023A7E70223A5E7002360
:1016B000A3E71023A1E710239FE7042B16D00BD834
:1016C000002B10D0022B05D1544B1B68DB062BD40A
:1016D00053480FE001208BE0082B02D1802000024C
:1016E00008E0012084E0FFF7C3FC01E0FFF7B2F857
:1016F00000286ED0626853009B1883426BD8130396
:1017000083426AD3070E06025008002180197941EE
:101710000023FEF761FD434BC218434B9A425ED84B
:101720002368D860002063E04048E3E7082B58D8DE
:101730009B003F4AD3589F46FFF79AFC002852D09F
:10174000400061684B08C018FEF7BAFC0200103A6E
:10175000384B9A4249D882B20F239A434008083B3B
:10176000034013432268D360002041E0FFF790FC60
:10177000E4E72A4B1B68DB0604D42948E0E7FFF7BF
:1017800069F8DBE72948DBE7FFF772FC002833D074
:1017900061684B081818FEF793FC0200103A254BBD
:1017A0009A422BD823680004000CD86000201FE068
:1017B000FFF76EFCEAE7194B1B68DB0607D41848F5
:1017C000E6E7FFF747F8E1E780200002E0E7174887
:1017D000DEE700200CE001200AE0012008E0012003
:1017E00006E0012004E0002002E0012000E00120EA
:1017F0000023A366E366D0BD0020F9E70120F7E7E8
:10180000F369FFEFFFCFFFFF00480040FFF4FFFF49
:101810000038014000440040D81E0008001002407B
:101820000024F40000FDFFFFFFFC0F0000093D0055
:10183000FC1E0008EFFF0000436A1B0706D5026884
:1018400053682C490B40416B0B435360436ADB07E1
:1018500006D50268536828490B40816A0B435360E0
:10186000436A9B0706D50268536824490B40C16A46
:101870000B435360436A5B0706D5026853682049EF
:101880000B40016B0B435360436ADB0606D50268CD
:1018900093681C490B40816B0B439360436A9B0622
:1018A00006D50268936818490B40C16B0B439360DF
:1018B000436A5B060BD50268536814490B40016C00
:1018C0000B435360026C80235B039A420AD0436A45
:1018D0001B0606D5026853680D490B40816C0B430B
:1018E00053607047026853680A490B40416C0B43D0
:1018F0005360ECE7FF7FFFFFFFFFFDFFFFFFFEFFF1
:10190000FFFFFBFFFFEFFFFFFFDFFFFFFFFFEFFF2B
:10191000FFFFF7FFFFFF9FFFF8B5CE46474680B5B4
:1019200006000D0017009946089B98463368DC694D
:101930002C40641B63425C41BC4233D143460133BB
:10194000F4D0FEF76FFF4B46C01A40452FD84346F0
:10195000002B2ED0326813685B07E7D5802DE5D0C9
:10196000402DE3D0D3691B0710D4D3691B05DDD507
:1019700080231B0113623000FFF7E2FD8423202245
:10198000F2500C3B0022F25403200CE008241462B5
:101990003000FFF7D5FD8423F4500C3B0022F254B5
:1019A000012000E00020C0BCB946B046F8BD0320CD
:1019B000F9E70320F7E7F0B5C64600B582B00400AA
:1019C0000D0090461E00C36F202B61D1002964D00A
:1019D000002A64D0826880235B019A4204D10369A3
:1019E000002B01D1CB075CD484230022E250633B5F
:1019F000E367FEF717FF070050234246E252023327
:101A0000E252A26880235B019A4202D000239846EA
:101A100017E02369002B28D00023984611E02023EB
:101A2000E367032035E043461B882268DB05DB0DB6
:101A3000936202239C46E0445223E25A013A92B256
:101A4000E2525223E35A002B12D000963B000022B0
:101A500080212000FFF760FF0028E0D1002DE2D0B8
:101A60002A7823689A620135E6E7A8460025E8E768
:101A700000963B00002240212000FFF74DFF002888
:101A800002D12023E36704E02023E367032000E082
:101A9000022002B080BCB846F0BD0120F9E7012069
:101AA000F7E70120F5E7000030B583B00400842398
:101AB0000022C250FEF7B6FE050023681B681B0714
:101AC0000FD423681B685B0729D42023E367802297
:101AD000A350002323666366083AA354002003B092
:101AE00030BD8021224B0093030000228903200097
:101AF000FFF712FF0028E4D0EFF31081012383F3F6
:101B000010882268136880208343136081F3108853
:101B10002023E36758330022E2547D38DFE7802139
:101B2000134B00932B000022C9032000FFF7F4FEA3
:101B30000028CAD0EFF31080012282F310882168B8
:101B40000B680C4D2B400B6080F31088EFF3108076
:101B500082F3108821688B6893438B6080F3108830
:101B600080231F32E250083B0022E2540320B6E7F4
:101B7000FFFFFF01DFFEFFFF10B5041E2ED0C36F75
:101B8000002B21D02423E3672268136801218B43B3
:101B90001360636A002B1DD12000FFF701FD0128AF
:101BA00011D0226853680E490B4053602268936835
:101BB0002A218B4393602268136829390B431360F1
:101BC0002000FFF771FF10BD78330022C254FEF7EA
:101BD0004BFDD7E72000FFF72FFEDDE70120F2E7FE
:101BE000FFB7FFFF704700000D488546FFF7FAFF7B
:101BF0000C480D490D4A002302E0D458C450043368
:101C0000C4188C42F9D30A4A0A4C002301E013603D
:101C10000432A242FBD300F019F8FEF743FCFEE7C2
:101C200000200020000000200C000020541F0008AD
:101C30000C000020C8000020FEE703008218934239
:101C400000D1704719700133F9E7000070B5002624
:101C50000C4C0D4D641BA410A64209D1002600F0C7
:101C6000E5F80A4C0A4D641BA410A64205D170BDCC
:101C7000B300EB5898470136EEE7B300EB589847AE
:101C80000136F2E74C1F00084C1F0008501F0008E7
:101C90004C1F0008F0B557464E464546DE46E0B5B7
:101CA00004000D009246994683B08B4230D82DD067
:101CB00049465046FEF7B0FA290006002000FEF71C
:101CC000ABFA331A9846203B34D49B4653465A46C7
:101CD000934042461F00534693401E00AF423BD8FC
:101CE000AF4200D179E05B46A41BBD41002B00DA76
:101CF00076E0002200230092019301235A4693408C
:101D00000193012342469340009329E08242CFD9B8
:101D100000220023009201930C9B002B01D01C6039
:101D20005D600098019903B0F0BCBB46B246A9467D
:101D3000A046F0BD42469B4620239B1A5246DA40FD
:101D4000414613004A468A40170042461F43534605
:101D500093401E00AF42C3D900220023009201939A
:101D60004346002BD8D0FB0772081A4346467B082F
:101D70000EE0AB4201D1A2420CD8A41A9D41012031
:101D800024196D410021013E24184D41002E06D03A
:101D9000AB42EED9013E24196D41002EF8D10098D6
:101DA00001995B4600196941002B24DB2B005A4640
:101DB0004646D3402A001C00F2405B461500002B2B
:101DC0002ADB26009E40330026004746BE403200F4
:101DD000801A9941009001919EE7A342BCD882E706
:101DE0004246202300219B1A0022009101920122E9
:101DF000DA40019285E7424620239B1A2A00464694
:101E00009A402300F340464613432A001C00F24048
:101E10005B461500002BD4DA202342462F009B1B83
:101E200097402600DE403B003343CDE7F8B5C0467F
:101E3000F8BC08BC9E467047F8B5C046F8BC08BC64
:041E40009E46704703
:101E44004C454420426C696E6B2077697468205558
:101E540041525420616E64204441432053746172A2
:101E6400746564210D0A0000444143207374617257
:101E7400746564202D20312E36355620636F6E73C1
:101E840074616E74206F7574707574206F6E205059
:101E940041340D0A00000000537175617265204CD5
:101EA4004F572028302E3556290D0A004C45442022
:101EB400546F67676C650D0A00000000537175610B
:101EC400726520484947482028322E3856290D0A81
:101ED4000000000088170008B0170008B6170008B3
:101EE400EE170008C2170008EE170008EE170008E6
:101EF400EE170008C8170008381700086C17000808
:101F040072170008E21700087E170008E21700089D
:101F1400E2170008E2170008401700080304060847
:101F24000C1018203000000000000000010203041F
:101F34000000000000000000010203040607080975
:081F440050FDFF7F01000000C9
:041F4C00E1020008A6
:041F5000B5020008CE
:0C1F54000100000004000000000020005C
:0400000508001BE9EB
:00000001FF
